:020000040800F2
:100000007808002055020008C34000087D3F000822
:10001000C140000865250008BD4700080000000039
:100020000000000000000000000000001341000874
:1000300019260008000000001141000815410008C1
:100040006F0200086F0200086F0200086F020008CC
:100050006F0200086F0200086F0200086F020008BC
:100060006F0200086F0200086F0200086F020008AC
:100070006F0200086F0200086F0200086F0200089C
:100080006F020008692500086F0200086F0200086F
:100090006F0200086F0200086F0200086F0200087C
:1000A0006F0200086F0200086F0200086F0200086C
:1000B0006F020008BD4100086F0200086F020008CF
:1000C0006F0200086F0200086F0200086F0200084C
:1000D0006F0200086F020008B14700086F020008B5
:1000E0006F0200086F0200086F0200086F0200082C
:1000F0006F0200086F0200086F0200086F0200081C
:100100006F0200086F0200086F0200086F0200080B
:100110006F0200086F0200086F0200086F020008FB
:100120006F0200086F0200086F0200086F020008EB
:100130006F0200086F0200086F0200086F020008DB
:100140006F0200086F0200086F0200086F020008CB
:100150006F0200086F0200086F0200086F020008BB
:100160006F0200086F0200086F0200086F020008AB
:100170006F0200086F0200086F0200080000000014
:100180006F0200086F02000800F002F800F052F859
:100190000AA090E8000C82448344AAF10107DA45E2
:1001A00001D100F047F8AFF2090EBAE80F0013F0E2
:1001B000010F18BFFB1A43F00103184784550000D4
:1001C000A4550000103A24BF78C878C1FAD8520765
:1001D00024BF30C830C144BF04680C6070470000C1
:1001E0000023002400250026103A28BF78C1FBD840
:1001F000520728BF30C148BF0B607047662905F021
:10020000C581752900F0D280002070471FB505F028
:10021000B0F900F0E3FF04000020002104F030FFFB
:10022000401C60600020002104F014FFE0601FBD4E
:1002300010B510BD01F098FA1146FFF7E7FF04F082
:10024000B7FC01F0F5FC03B4FFF7F2FF03BC01F0CB
:100250004DFD00000948804709480047FEE7FEE7DA
:10026000FEE7FEE7FEE7FEE7FEE7FEE7FEE7FEE766
:1002700004480549054A064B70470000AD41000897
:100280008901000878020020780800207804002006
:100290007804002053EA020C00F069802DE9F04B4D
:1002A0004FF00006002B1FBFB3FA83F503FA05F4E5
:1002B00024FA05F65E4012BF1643B2FA82F502FA3E
:1002C00005F4C5F120051EBF22FA05FC44EA0C0422
:1002D000203556EA044C4FEA144418BF641C4FF012
:1002E00000084FF00009904271EB030C39D300294C
:1002F00019BFB1FA81F701FA07F6B0FA80F700FAF0
:1003000007F6C7F120071EBF20FA07FC46EA0C06D5
:100310002037B6FBF4FCA7EB0507103F07F01F0BD7
:10032000CBF120060CFA0BFB2CFA06F644BFB346C1
:100330000026202FA4BF5E464FF0000B5BEA060CA0
:1003400008BF4FF0010B19EB0B09ABFB027C48EB2C
:100350000608C01B06FB02CC0BFB03CC71EB0C01A7
:10036000C1E70B46024641464846BDE8F08B13B54F
:100370004FF000004FF00001AFF30080BDE81C40DB
:10038000704700000FB41CB5074B06AA7B446946B2
:100390000090059800F049FC0020694600F058FCE8
:1003A0001CBC5DF814FB0000C10800002DE9F04101
:1003B0000646002410687529314616A510D0AFF303
:1003C0000080002802DA404213A507E031688A075E
:1003D00001D512A502E0490704D511A5012401E0C9
:1003E000AFF3008000210A2206F1240709E0B0FBE8
:1003F000F2FCB0FBF2F302FB1C00303078541846DC
:10040000491C0028F3D123462A463046BDE8F04176
:1004100000F09DB9000000002D0000002B0000003E
:10042000200000002DE9F0474FF0000A89460446FD
:10043000C0F820A02046E1688847002876D025280B
:1004400006D0D4E901219047206A401C2062F1E7E0
:10045000E168204600258847C4F81CA0064600270E
:10046000C4F818A02A2E09D0304604F0E8FA38B3B0
:1004700004EB8708303EC8F8186019E059F8041BEF
:10048000204604EB87029161E1688847012F064608
:1004900018D1E069002820DA25F020051DE0D8F801
:1004A000180000EB800006EB40003038C8F8180058
:1004B0002046E1688847064604F0C1FA0028EED1DC
:1004C000012F0AD02E2E08D12046E16888477F1CD4
:1004D0000646022F45F02005C4DBA069002803DA98
:1004E000404245F00105A061E80701D025F0100564
:1004F000B6B1A6F14100192802D8203645F40065AE
:100500004A463146204625604D46FFF777FE58B1F2
:10051000012806D0ED1D25F0070000F1080989E744
:1005200004E005F1040985E730468AE7206ABDE862
:10053000F08700000FB400B58DB010A909900091AC
:100540000B904FF0FF300A9000200C900648784442
:100550000690064878446A4607900F9909A800F06B
:100560000DFE0DB05DF814FB4B0C0000630C000099
:100570002DE9FF5F1D464FF0FF3B91464FF000080D
:100580005F46D5E90146A96901987F1C8847296A19
:10059000824688470028F6D1BAF1FF3F0CD0002EE2
:1005A00024F4C06419DD600614D5BAF12B0F09D00C
:1005B000BAF12D0F0ED103E0584604B0BDE8F09F0C
:1005C00044F48064A96901987F1C8847761E82469E
:1005D000002E02DDBAF1300F03D0B9F1000F26D0A2
:1005E00032E0A969761E01987F1C44F400748847A4
:1005F000002E824605DDBAF1780F06D0BAF1580F09
:1006000003D0B9F1000F10D01EE0B9F1000F02D0F5
:10061000B9F1100F18D1A969761E01987F1C24F436
:10062000007488478246102002E0082000E00A207B
:10063000814609E0A96908FB0908761E01987F1C1C
:1006400044F4007488478246002E05DD4946504632
:1006500000F003FB0028EDDAE96901988847A0055E
:1006600002D46FF00100A8E7E00725D1600613D59A
:10067000600502D5C8F1000000E0404629680A1D67
:100680002A600968220501D5087015E0220701D506
:10069000088011E008600FE02868011D29600068EB
:1006A000210502D580F8008006E0210702D5A0F8D8
:1006B000008001E0C0F8008038467EE710B5431C9A
:1006C00002E010F8011B71B18107FAD14FF001323D
:1006D00002C88C1A8C4314EAC211F9D0C01A0A0657
:1006E00003D0C01E10BDC01A10BD0A0401D0801E68
:1006F00010BD0902FCD0401E10BD4FF0000200B535
:10070000134694469646203922BFA0E80C50A0E834
:100710000C50B1F12001BFF4F7AF090728BFA0E8E2
:100720000C5048BF0CC05DF804EB890028BF40F8AE
:10073000042B08BF704748BF20F8022B11F0804FF0
:1007400018BF00F8012B70477047704770472DE9BC
:10075000F0470D4699469246044600F12408016888
:10076000880604D5E06921F01001216000E0012035
:10077000A84201DD471B00E00027A1697A1902EBBE
:100780000900081AA0612078C00602D42046AFF301
:100790000080002608E0D4E901211AF806009047FD
:1007A000206A401C761C20624E45F4DB2078C0068F
:1007B0000AD52046AFF3008006E0D4E901213020BD
:1007C0009047206A401C2062381EA7F10107F4DC24
:1007D00007E0D4E9012118F805009047206A401C81
:1007E0002062281EA5F10105F3DC2046AFF300804E
:1007F0002078000602D50220BDE8F0870120FBE743
:1008000070472DE9FF4F0C461E464FF0FF378BB067
:10081000D2E90001DDF860800A908A46C1F30A55EA
:1008200005B93D46002108464FF00000BAF1000F1F
:1008300000F4400005DA00EB80004FF4400101EACB
:1008400050004FEA9059B9F1010F00DDB9460A98FE
:1008500050EA4A000ED044F61050A5F2FF35454349
:100860002F14B8F1000F1ED07542291E1EDDC9F1EC
:1008700000021CE0B8F1010F4FF0000001D0302160
:1008800003E0F24305E02154401CB042FBDB30465C
:100890000022002121540B99C1F80880C1E90020F1
:1008A0000FB0BDE8F08FBD1B6D1CDEE74A4600DAD5
:1008B000694206A800F0E2FE06AB93E8070003AB2E
:1008C00083E8070050460A9901F017FA8DE80700FF
:1008D000A0F500501F3800900398002D0ADD42F269
:1008E0001F014A460844002303A90390684601F00B
:1008F000C3FC09E0A0F500504A461F38002303A9B5
:100900000390684601F0E2FC8DE807000004000C4B
:1009100003D04FF0FF30410800E01046B8F1000F5F
:1009200003D00022009215461EE0751E05D400F08B
:100930005DFC303262556D1EF9D5B3460122084385
:1009400002D000227F1C04E02078302801D1002250
:100950007F1E002A099784D01DE0112D07DA00F0D0
:1009600045FC303262556D1C50EA0102F5D1084356
:1009700002D00098C8B10EE00021681E05E0235C9B
:10098000625C63542254401E491C8142F7DBAB4633
:10099000A81B401E0990002004F80B000B98099A30
:1009A000C0F80880C0E9002B7AE711264FF0000854
:1009B00057E72DE9F04F88460446D21D22F0070183
:1009C00091B0D1E90001CDE90A0103F0F8FE024639
:1009D0000B98C00F01D02D2007E02068810701D5BA
:1009E0002B2002E0202101EAC000032A099001D057
:1009F000072A05DB03464146204600F045FC0BE193
:100A00002078800601D5E06900E00620B8F1650F86
:100A1000814606D0B8F1660F18D0B8F1670F70D1D3
:100A200031E00020B9F1110F009001DB112301E04A
:100A300009F101030AAA01A90CA8FFF7E2FEDDE90A
:100A40000C70002609F10105834647E001204B4662
:100A500000904FF000470AAA01A90CA8FFF7D1FEA9
:100A6000DDE90DB00C995D46002610B909F10100D1
:100A70000D18B9EB050003D4C0F1FF3609F10105EB
:100A8000A5EB09002BE0B9F1010F01DA4FF00109E4
:100A90000020B9F1110F0090484601DD112300E05C
:100AA00003460AAA01A90CA8FFF7ABFEDDE90C700A
:100AB0004D4600268346207800070AD4AB4500DA6D
:100AC0005D4601A8012D04DD411911F8011C3029F2
:100AD00007D04F4502DA17F1040F04DA01208246ED
:100AE0000FE06D1EEEE7002F02DCED1B3E4403E03D
:100AF000781CA84200DD7D1CB81B00F1010A4FF0F4
:100B000000472078000703D4AA4501DB4FF0FF3AE5
:100B10000021B7F1004F0DF143088DF8431024D0A8
:100B200002202B23002F01DA7F422D230A21021EEF
:100B3000A0F1010000DC5FB197FBF1FC97FBF1F243
:100B400001FB1C7C17460CF1300C08F801CDEEE7D8
:100B5000A8F1010003702188090501D5452100E0B5
:100B60006521A0F1010800F8011C09980FA9A1EB6B
:100B70000807FF1D00B10120411901EBEA70A169CE
:100B80003844081A401EA0612078C00602D42046CE
:100B9000AFF30080099828B1D4E901219047206A79
:100BA000401C20622078C00622D52046AFF300808A
:100BB0001EE0002E04DBB34502DD01A8805D00E0ED
:100BC0003020D4E901219047206A401C2062761C25
:100BD000AAF101005FEA000A0AD100F0FFFAC0683A
:100BE0000168405CD4E901219047206A401C2062E2
:100BF000281EA5F10105DCDC07E0D4E9012118F885
:100C0000010B9047206A401C2062381EA7F10107A3
:100C1000F3DC2046AFF30080032011B041E6000072
:100C200001694A1C02610878704700B58FB0CDE9B0
:100C300001310021059105497944CDE903101146A0
:100C40006846FFF7EFFB0FB000BD0000E5FFFFFFB8
:100C50000A6802F8010B0A6070473A2800D230385F
:100C600020F02002412A01D3A2F13700884201D3AB
:100C70004FF0FF30704700002DE9FF4F06468BB064
:100C80000878FF2806D0491C2D2805D000244FF0F5
:100C9000000908E000200CE00124F8E709EB8903D3
:100CA000491C00EB43090878FF28F7D114B1C9F1BA
:100CB00000008146107800252C46AA4629462D289A
:100CC00001D02B2804D1521C2D2813D0002082469D
:100CD0008B461078FF280FD04FF0000C0A21521CD1
:100CE000A5FB017804FB018105FB0C11C5194BEB39
:100CF0000104EEE70120EAE7002108464FF000007A
:100D0000BAF1000F02D000EB80004008C0F3815719
:100D1000012F01DD4FF0FF370E9955EA040009EB72
:100D200001080BD04FF0020918F5FA7F16DA4FEAE6
:100D3000CA70002F706008DD012007E04FEACA701A
:100D4000C6E900B00FB0BDE8F08F0020306000F0C1
:100D500049FAC0F800901821084616E0B8F5FA7F65
:100D600018DD002F02DAF748784401E0F6487844AD
:100D7000D0E90010C6E9001040EACA70706000F0C7
:100D800031FAC0F80090142108460FB0BDE8F04FCA
:100D900004F0F9BB002108464FF00000B8F1000153
:100DA000099002DAC7F1000200E03A4601DAC8F120
:100DB000000106A800F062FC06AB93E8070003AB55
:100DC00083E8070044F23E005BEA040100905846C5
:100DD00004D144F21E012C465D460091210C090409
:100DE000014306D10099240444EA15442D04103926
:100DF000009104F07F41014306D10099240244EAA6
:100E000015642D020839009104F07041014306D1A8
:100E10000099240144EA15742D01091F009104F082
:100E20004041014306D10099A40044EA9574AD0005
:100E3000891E009104F00041084304D100986D1907
:100E40006441401E00904FF001033A466846B8F1F5
:100E5000000FCDE9014503A902DD01F04CFA01E0E4
:100E600001F01FFABAF1000F04460D4601D084F0DC
:100E70000044002108464FF00000099940F2FF7736
:100E8000484010F00C0F07D124F00040284303D055
:100E9000C4F30A50B84212D100F0A4F9C0F800908F
:100EA000C4F30A50B8420AD1A8487844D0E90010E7
:100EB000C6E9001004F000410843706042E7C6E94B
:100EC00000543FE72DE9FF4F1F464FF0000A4FF057
:100ED000FF38454691B0D7E90146CDF83CA000F077
:100EE0007DF9C0680168405C1090B96912986D1C6A
:100EF0008847396A814688470028F6D1B9F1FF3F13
:100F00000AD0002E24F4D06411DDB9F12B0F08D0E3
:100F1000B9F12D0F0BD102E0404615B013E744F4B0
:100F20008064B96912986D1C8847761E81466005F9
:100F300004A901D52D2000E02B20002E01F1010B8A
:100F40000DF130088DF810003FDDB9F1690F08D0C0
:100F5000B9F1490F05D0B9F16E0F02D0B9F14E0FBA
:100F60001CD13B4601A8009580E85002DDE9121231
:100F70006FF0020004F070FBC11CCED10EE0B96925
:100F800012986D1C884781461398761E44F40074AD
:100F900005600F98401C002E0F9016DDB9F1300F40
:100FA000EDD0B9F1780F02D0B9F1580F0DD10F98EB
:100FB00001280AD13B46CDE90054DDE91212001F99
:100FC000029604F047FBC11CA7D1109989453ED178
:100FD00044F0800406E01399681CAAF1010A44F465
:100FE00000740860B9696D1C1298761E8847302815
:100FF0008146F0D02BE01099894505D1200603D415
:10100000761E44F0800418E0484603F018FD08B34B
:10101000761E0DF123018B4544F4007408D2A9F12A
:1010200030000BF8010B200607D5AAF1010003E000
:10103000200602D40AF101008246A00502D51399C8
:10104000681C0860B96912986D1C88478146002E9B
:10105000D1DC53E0002E51DDB9F1650F02D0B9F1BA
:10106000450F4BD1A00549D5B9696D1C1298761E64
:1010700024F440748847002E81460CDD2B2804D0D0
:10108000B9F12D0F07D144F48074B96912986D1C21
:101090008847761E8146E00501D52D2100E02B21F1
:1010A00008F8011BCDF8008021E0761E0DF1390112
:1010B000884544F400740CD2A9F1300010F0FF0010
:1010C00088F8000002D10099884509D908F1010883
:1010D00006E0E00501D51E4801E042F20F708246AD
:1010E000B96912986D1C8847814613980560002ED7
:1010F00004DD484603F0A3FC0028D6D1F969129814
:101100008847FF2053468BF8000088F80000002035
:101110000A900B9004AA0CA90AA8FFF7ADFDA00540
:1011200002D46FF00100F8E614F0240F12D0E007AB
:101130001CD13868DDE90A12031D3B600068C0E974
:10114000001213E0FC490000EE490000B248000024
:10115000F1D8FFFF0AA9684603F05EFCE00705D15D
:101160003868009A011D3960006802602846D4E69C
:10117000026811441378016018467047D160054930
:101180007944516104497944116200211161114689
:1011900000F0BAB8EDFFFFFFED000000426842B179
:1011A000016811F8013B23B1521EC0E90012184634
:1011B00070470121C160881E704742685AB1C368F8
:1011C000016843B983688B4205D0491E521CC0E9AF
:1011D0000012002070474FF0FF3070470048704702
:1011E00038020020004870471802002030B5B0F1E6
:1011F0000A024FEA900E71F100034EEA817EB0EBD5
:101200000E0061EB91014FEA101E4EEA017E10EBD9
:101210000E0041EB11114FEA102E4EEA016E10EB59
:101220000E0041EB11214FEA104E4EEA014E10EB39
:101230000E0041EB1141401841F100014FEAD0008E
:1012400040EA41704FEAD10110EB80054FEA81047A
:1012500044EA907444EB01046D1944EB0404521BFE
:10126000A3414FF0000348BF0A3200D530BD401CF7
:1012700041F1000130BD10B5044600F09BFA006852
:10128000005D00F0010010BD2DE9F0411F4604464D
:1012900003260168072A01F4006004DB08B116A5E3
:1012A00005E016A503E008B115A500E015A521F09D
:1012B00010002060A069C01EA0610FB1401EA06197
:1012C0002046AFF300804FB1D4E901213846904762
:1012D000206A401C2062C01C206206E0206AFAE7F7
:1012E000D4E9012115F8010B9047761EF8D220466B
:1012F000AFF30080BDE8F0814E414E006E616E009C
:10130000494E4600696E66002DE9F34F4FF0000A22
:101310000C4656468DB001200C9001F10C000B904C
:1013200062690B9801219047051E2DD0252D2CD0E8
:10133000216A8847C0B162690B9801219047216AF0
:1013400088470028F7D16269411E0B98904700E05A
:10135000761CA1690D988847216A88470028F7D133
:10136000E1690D988847DBE7A1690D988847A84295
:10137000074601D1761CD3E7E1690D9888477F1CA9
:1013800002D1BAF1000F6FD06BE162690B980027B0
:101390003D46394690472A2804D162690B980121BD
:1013A00090470125DFF8D08262690B9801219047B0
:1013B000A0F130010A290AD24745E5DC07EB870195
:1013C00000EB4107303FDFD445F01005ECE7E906BC
:1013D00001D46FF000476C280AD04C2814D068283C
:1013E00015D06A280DD074281CD07A281AD01DE098
:1013F00062690B98012190476C2802D045F00405E2
:1014000014E045F002050DE045F020050AE06269B0
:101410000B9801219047682802D045F0080505E0A7
:1014200045F4006562690B9801219047C4E90157B2
:1014300065283DD019DC58287AD00CDC452837D0F7
:1014400004DC252826D041289ED131E046282FD023
:10145000472899D12CE05B2877D0612828D06328D1
:101460007CD0642823D15AE0F6E06F2848D008DC0D
:1014700066281DD067281BD0692821D06E2816D178
:1014800027E0702845D0732868D0752847D0782881
:101490000DD14DE0A1690D988847252805463FF4F8
:1014A00069AFE1690D9888476D1C3FF46AAFD8E0D9
:1014B0000D9923466A466FF0010004F0C9F8C5E0B3
:1014C00045F0400023464FF000026060A80736D484
:1014D0003EE0E8077FF447AF2068011D2160006807
:1014E000290501D506701BE7290701D5068017E7F6
:1014F000A90703D5F117C0E9006111E706600FE7FE
:1015000045F0400023464FF008026060A80716D45B
:101510001EE040F60E0125EA0100606016E045F08D
:10152000400023464FF00A026060A80707D40FE08E
:1015300045F040006060A80708D5234610220D99A9
:101540006FF00100AFF3008080E007E01022234637
:101550000D996FF00100FFF70BF877E04FF00009ED
:1015600063284F46C8464B46CB4602D05B2806D080
:1015700038E0E80601D40120A060012732E062696A
:10158000D4F80CB00B98012190475E2807D14FF09A
:10159000010949466269D4F80CB00B98904721695B
:1015A00039B900210A4603AB43F82120491C082918
:1015B000FADBD8B3216949B308F1010862690B98D5
:1015C000012190475D28F4D1B9F1000F09D0002026
:1015D00003A951F82020D24341F82020401C0828BC
:1015E000F7DB03AB2069002820794FEA40701ED05A
:1015F0005B462246CDF80080CDE901970D99002881
:101600006FF0010020DAAFF300801FE0C11703AADA
:1016100000EBD1614B1121F01F0102EB8302411A53
:1016200013680120884003431360C7E719E00D9950
:10163000224600286FF00100009702DAAFF3008025
:1016400004E0AFF3008001E0AFF3008000280ADA85
:10165000401C06D10C9820B14FF0FF300FB0BDE810
:10166000F08F5046FAE7E90701D10AF1010A064472
:1016700000200C9054E60000CCCCCC0C2DE9F047B7
:10168000814616468AB0354878440DC88DE80D006D
:1016900032487844801C03AC0DC884E80D0041F644
:1016A0009B300844372190FBF1F290FBF1F5A5F156
:1016B000800501FB12041B3C02D56442012000E0BE
:1016C0000020DFF898A080460027FA44AAF1BE0A5D
:1016D0000EE0E0070AD03246684607EB47010123D7
:1016E0000AEB810100F0F2FD8DE8070064107F1C19
:1016F000002CEED1194F7F44AE3F19E0E80715D01A
:1017000007EB04100DF1180A90E80E008AE80E00AD
:10171000C068F04201D1981908903246012306A909
:1017200003A800F0D3FD03AB83E807006D10641C31
:10173000002DE3D14FF0010332466946B8F1000FA6
:1017400003A802D000F098FD01E000F0BFFDC9E958
:101750000001C9F808200AB0BDE8F0879C400000ED
:1017600000487047180200207546FFF7F9FFAE46A3
:1017700005006946534620F00700854618B020B59D
:10178000FEF776FDBDE820404FF000064FF0000761
:101790004FF000084FF0000B21F00701AC46ACE819
:1017A000C009ACE8C009ACE8C009ACE8C0098D4686
:1017B0007047000010B5FFF711FD001D10BD00BF00
:1017C000C138000010B5FFF70DFD006810BD10B561
:1017D0000446FFF707FD046010BD00002DE9FF4F30
:1017E0001F464FF03C0987B04FF00042DDE914106E
:1017F00001F10108DDF858A002EA405003900020F2
:1018000005908346054604460490B969461E08982B
:101810008847AAF1010A0290BAF1000F3BDD029855
:101820002E2815D01021FFF718FA00282EDB4FF0D4
:10183000010B0599014317D0B9F1000F0BDB4A46A4
:10184000C11700F03FFA05430C43A9F1040905E074
:10185000012004900BE008B145F00105012005903E
:10186000049820B9361D02E0049800B1361FB9690A
:10187000089808F101088847BBF1000FAAF1010A96
:101880000290C9D00999C1F80080C5E70298702874
:1018900008D0502806D0F96908988847BBF1000F96
:1018A00014D04FE0002002900120BBF1000F049003
:1018B00009D0B969089808F101088847AAF1010917
:1018C000B9F1000F07DCF969089888476FF001004B
:1018D0000BB0BDE8F08F2B2804D02D280CD14FF091
:1018E000FF300490B969089808F101088847A9F108
:1018F0000109B9F1000FE6DD411CE4D00A21FFF730
:10190000ACF90028DFDB029908F1010801EB810145
:1019100000EB41000290B969089888470A21FFF757
:101920009CF9099AA9F10109B9F1000FC2F80080E8
:1019300001DD0028E7DAF9690898884704990298D8
:1019400000FB016655EA040004D004F040410900A0
:1019500002D006E0039898E0A40044EA9574AD0034
:10196000B61E04F00041080002D16D196441761ED4
:10197000159810F0240F03D04FF00B095C4803E0DA
:101980004FF028096FF07D008246564507DAAAEB32
:1019900006018944B9F1410F01DD4FF041090120F1
:1019A0000021A9F1010200F08DF9024628400B4602
:1019B0002140084301D0012100E00021501E029186
:1019C00043F1FF3128402140084301D0012000E0CD
:1019D00000200299834651EA0B014FD000210846AE
:1019E0004FF00000039900F4400039B100EB800093
:1019F0004FF4400100EBD07001EA6000801501282F
:101A000002DD4FF0FF3000E013D0401C36D00298CA
:101A100060B3BBF1000F0CD14A460120002100F059
:101A200051F928402140084301D0012000E0002066
:101A3000E0B101204A46002100F044F90346401974
:101A40000A4661412D1A8C4111D3B9F1400F09DDCD
:101A5000159810F0240F02D0AAF1340603E0AAF181
:101A6000170600E0761C00254FF0004406E05B1EE0
:101A700042F1FF3220EA030521EA0204CAF1010023
:101A8000B04206DA1B4903980843019000200090F9
:101A90000EE0039AC4F3D321E80A0A43164940EA48
:101AA00044500A433146CDE90002684602F0BDFFCA
:101AB000159810F0240F0BD01598C00715D1386871
:101AC000DDE90012031D3B600068C0E900120CE074
:101AD00002A8694602F0A0FF1598C00705D1386832
:101AE000029A011D3960006802604046F0E600007D
:101AF00002FCFFFF0000F07F0000F03F2DE9FF4FE8
:101B000092461D4685B04FF00041DDE9124BDDE9FC
:101B100014727F1E01EA4B50414940F0FF4940EAF0
:101B20000108002122F020004928049102D04E280B
:101B300028D04CE03BA0012607C88DE80700A96922
:101B40000698641C88477F1E014606D41DF80600CF
:101B500018B121F0200181420BD0E969069888472D
:101B6000032E34D0082E32D06FF0010009B0BDE84A
:101B7000F08F761C032E01D0082EE0D1601CCAF82D
:101B80000000DCE7A9690698641C88477F1E2AD4F8
:101B900020F02000412826D1A9690698641C8847B6
:101BA0007F1E20D420F020004E281CD1A969069861
:101BB000641C88477F1E48F4002849F48009CAF84D
:101BC000004001D4282806D0E969069888475FEAD2
:101BD000CB7012D022E0A9690698641C88477F1E4A
:101BE00001D4002803DAE96906988847BCE7292868
:101BF000F1D1641CCAF80040E9E71BF0240F07D0BC
:101C000028680499031D2B600068C0E9001805E0EE
:101C10002868021D2A600068C0F800902046A5E7E9
:101C20000000F07F494E46494E49545900000000DB
:101C300010B50446AFF300802046BDE81040FEF723
:101C400002BB00004FF0013C50F8042B51F8043B5C
:101C50009A4221D1A2EB0C03934313EACC1317D180
:101C600050F8042B51F8043B9A4215D1A2EB0C0317
:101C7000934313EACC130BD150F8042B51F8043BD7
:101C80009A4209D1A2EB0C03934313EACC13DBD0A5
:101C90004FF00000704700BFD01A01BAB1FA81F1CD
:101CA00001F0180122FA01F0CB40C1F12001DBB2B2
:101CB000C0B2C01A2CFA01F3D11A914311EAC31130
:101CC000E6D17047B2F120030AD5C2F1200301FA30
:101CD00002F120FA03F300FA02F041EA030170472F
:101CE00000FA03F14FF0000070470000014918208E
:101CF000ABBEFEE72600020070475FEA400C08BF5B
:101D000091F0000F4FEA8C234FEAC12243EA515170
:101D10004FEA1C5018BF00F5F0404FEA300018BFE2
:101D200041F000415FEA6C5C00F02980BCF1FF3FAC
:101D300008BF40F080407047130C06BF12044FF0FC
:101D4000100C4FF0000C130E04BF12020CF1080C23
:101D5000130F04BF12010CF1040C930F04BF920087
:101D60000CF1020CD30F04BF52000CF1010C114610
:101D70004FF00002A0F11F00A0EB0C00704711F023
:101D8000004F08BF704731F000413FF4D5AF0B0C56
:101D900006BF09044FF0100C4FF0000C0B0E04BFEF
:101DA00009020CF1080C0B0F04BF09010CF1040C23
:101DB0008B0F04BF89000CF1020CCB0F04BF49004C
:101DC0000CF1010CCCF12003A0EB0C0022FA03F380
:101DD00002FA0CF241EA030100F10100704720F021
:101DE0007F4C80EA030023F07F47ACEB070303F549
:101DF0007C5300F0004003F1FF032DE980494FEAD6
:101E0000154B09B44FEA144325EA0B4E24EA034864
:101E10000FF2042606EB132749083E785FEA3202E8
:101E200003FB0667C7F5000707FB06F64FEA5437C2
:101E30004FEAD64606F1020607FB066CCCF1005CC1
:101E40004FEA1C472CEA074C07FB06F40CFB06F58F
:101E500004EB15464FEA961634BF00204FF00040C1
:101E60004FEAD13706FB07FC4FEA1C4C0CFB0BF783
:101E7000D21B03FB0CF761EB07010CFB0EF7B0EB79
:101E8000074072EB17420CFB08F734BFA2EB074286
:101E9000B2EB074261EB17414FEA0C444FEA91075E
:101EA00006FB07FC4FEA1C4C0CFB0BF7B0EBC740E2
:101EB00072EB573203FB0CF734BFA2EBC742B2EB15
:101EC000C74261EB57310CFB0EF7B0EBC70072EB6A
:101ED00057720CFB08F734BFA2EBC702B2EBC70284
:101EE00061EB5771039F4FEA816141EA921104EB64
:101EF000CC044FEAD1374FEA826206FB07FC42EA84
:101F000090124FEA80604FEA1C4C0CFB0BF7D21B7F
:101F100003FB0CF761EB07010CFB0EF7B0EB07407E
:101F200072EB17420CFB08F734BFA2EB0742B2EB8F
:101F3000074261EB17414FEA8C554FEA910704EBDA
:101F40009C2406FB07FC4FEA1C4C0CFB0BF7B0EB88
:101F5000C74072EB573203FB0CF734BFA2EBC7420A
:101F6000B2EBC74261EB57310CFB0EF7B0EBC70089
:101F700072EB57720CFB08F734BFA2EBC702B2EB4F
:101F8000C70261EB577115EB4C254FEA816141EABD
:101F900092114FEA82624FEAD13742EA901206FB71
:101FA00007FC44F100044FEA80604FEA1C4C0CFB34
:101FB0000BF7D21B03FB0CF761EB07010CFB0EF7D1
:101FC000B0EB074072EB17420CFB08F734BFA2EBF3
:101FD0000742B2EB074261EB174115EB1C154FEAC4
:101FE000813141EA92414FEA823242EA90424FEA1D
:101FF00080304FEA0C7644F1000448EA03434EEA8D
:102000000B484FF0000EB2EB080C71EB030724BF36
:10201000624639464EEB0E0E4FF0000B001852414F
:1020200049414BEB0B0BB2EB080C71EB03077BF157
:10203000000B24BF624639464EEB0E0E4FF0000BEC
:102040000018524149414BEB0B0BB2EB080C71EB02
:1020500003077BF1000B24BF624639464EEB0E0EA0
:1020600051EA020718BF46F0010616EB0E7655F14D
:10207000000254F1000103D5BDE88901BDE80088E4
:10208000BDE88901BDE80048B619524141EB0101A4
:10209000A3F10103704780807F7E7D7C7B7A797815
:1020A000777676757473727171706F6E6E6D6C6C1D
:1020B0006B6A6A69686867666665646463636261BF
:1020C0006160605F5F5E5E5D5D5C5C5B5B5A5A5940
:1020D00059585857575656555555545453535252AC
:1020E0005251515050504F4F4F4E4E4D4D4D4C4C04
:1020F0004C4B4B4B4A4A4A4949494848484747474D
:102100004746464645454544444444434343434289
:10211000424242414141000046EA0646A3F570535F
:102120004FEA164646EA42564FEAD22242EA415266
:1021300010B54FEAD121A3F1010300F02FF820F0F0
:10214000004000F1020C00F0004701EB0050114686
:10215000BCF5006F40EA070000D210BDBAF1000FD5
:102160000AD01CB503B44FF004004FF004014FF047
:1021700000000FBCBDE810404FF00001BBF1010FA3
:10218000B9BF04484FF0FF310348002140EA07007F
:1021900010BD00BFFFFFEF7F0000F07F002B9C46CB
:1021A00030D477002BD01CB54FEA370703B44FF07B
:1021B00010004FF01001BAF1000F06D0BCF1000F73
:1021C000DCBF40F0080040F008014FF000000FBCF9
:1021D000BDE810400BF1010BBBF1010F08BF5FEA36
:1021E000170722BF12F1010211F101014FF0004166
:1021F00043F1000300F0004043EA00007047F9D3C8
:102200005708D0E746EA064613F1400F4FEA164654
:102210001FDD13F1200FDFBF16430A4600212033D4
:102220005B42BED0C3F1200746EA064602FA07F732
:102230004FEA164646EA0706C3F1200722FA03F2E0
:1022400001FA07F721FA03F14FF0000342EA07020F
:10225000A7E746EA020646EA06464FEA164646EA77
:102260000106BCBF46EA0646360C4FF000034FF0AD
:1022700000024FF0000194E72DE9804C9A46934606
:1022800070B491E8380007C831EA400C48BF34EA1E
:10229000430C03D5FFF7A3FDFFF780FFF0BCBDE8BB
:1022A000008C2DE9804C9A46934670B491E8380032
:1022B00007C831EA400C48BF34EA430C03D5FFF7A6
:1022C0008EFDFFF729FFF0BCBDE8008C2DE9804CA6
:1022D0009A46934670B491E8380007C810F0804FD2
:1022E00008BF13F0804F03D100F01AF8FFF756FF34
:1022F000F0BCBDE8008C2DE9804C9A46934670B442
:1023000091E8380007C810F0804F08BF13F0804FE5
:1023100003D100F005F8FFF7FFFEF0BCBDE8008C2C
:1023200020F07F4780EA030023F07F4C07EB0C038B
:10233000A3F57C5300F00040A3F1FE0392F0000FE0
:1023400000F0B38095F0000F00F077802DE901498F
:102350004FEA11404FEA144621EA004800FB06FC10
:1023600024EA064708FB06F607FB08F800FB07F718
:1023700018EB06484CEB164C4FEA124B18EB07488B
:102380004FEA15464CEB174022EA0B4E0BFB06FCBE
:1023900025EA06470EFB06F607FB0EFE0BFB07F7CA
:1023A0001EEB064E4CEB164C4FF000061EEB074E94
:1023B0004CEB174B18EB0B0840F1000018EB0E0B21
:1023C00058EB000840F100008F1A4FF000013CBFAD
:1023D000C943661B14BFB5EB040C00213CBFC943C5
:1023E000F61B4FEA17444EEA8E0E27EA04454FEAE1
:1023F0001C4704FB07622CEA074C05FB07F70CFBA4
:1024000005F604FB0CFC16EB074642EB174216EBF5
:102410000C4642EB1C421BEB060658EB0202414104
:1024200046EA9E0601D5BDE80189B619524141EB45
:102430000101A3F10103BDE801894FEA14454FEA08
:10244000114724EA054621EA074C05FB07F406FB81
:1024500007F70CFB06F105FB0CFC11EB074144EB05
:1024600017444FEA124711EB0C4144EB1C4422EA9B
:10247000074C05FB07F206FB07F70CFB06F605FB0E
:102480000CFC16EB074642EB174216EB0C4642EBF0
:102490001C456A1854F1000148BF7047B6195241F3
:1024A00041EB0101A3F10103704795F0000F37D014
:1024B0004FEA11424FEA144721EA024624EA074C48
:1024C00002FB07F106FB07F70CFB06F402FB0CFC12
:1024D00014EB074441EB17414FEA154714EB0C444A
:1024E00041EB1C4125EA074C02FB07F506FB07F709
:1024F0000CFB06F602FB0CFC16EB074645EB1745FA
:1025000016EB0C4645EB1C42121951F1000148BF75
:102510007047B619524141EB0101A3F10103704725
:102520004FEA14454FEA114724EA054621EA074CD1
:1025300005FB07F106FB07F70CFB06F24FF0000660
:1025400005FB0CFC12EB074241EB174112EB0C426E
:1025500051EB1C4148BF7047921841EB0101A3F1B8
:1025600001037047FEE70000014800F0CBB800000F
:10257000B801002001681823CAB2103AB2FBF3F286
:10258000054B6FF30901032A9B5CC36500D9091D44
:1025900081650846704700008C56000810B501465A
:1025A00000208B698A6A4FF0C07453B1B3F5005FA5
:1025B00015D072B1012A0CD0022A0AD0032A09D1FF
:1025C00004E01AB1012A06D0022A03D1C96AC9015E
:1025D00000D5012010BDC96AA142FAD010BD002A61
:1025E000F7D0012AF2D0022AF3D0032AF3D010BD8B
:1025F00030B50468256825F480252560046863608B
:102600008368402B036803D099600068C26030BDC6
:102610009A600068C16030BD704772B6FEE7000086
:10262000094AB7EE000A82ED060A9389B3F5FA6FFC
:1026300008D1136993FBF0F00880002090810121FC
:102640001171106170470000000000202DE9F04179
:102650000446876D00F0C6FA064694F8350000255A
:10266000022806D08020606584F834500120BDE83F
:10267000F0812068016821F016010160206841693D
:1026800021F080014161206C08B9A06C20B1206864
:10269000016821F0080101602068016821F0010152
:1026A00001600CE000F09EFA801B052807D920206D
:1026B0006065032084F8350084F83450D7E720683B
:1026C0000068C007EED194F85C103F208840B860E5
:1026D000012084F8350084F834500020C7E790F8D2
:1026E0003510022903D08021416501207047052162
:1026F00080F835100068016821F0010101600020B8
:10270000704700002DE9F84304464FF00009CDF86A
:10271000009063484FF41651A56D0068B0FBF1F7C7
:102720002E6894F85C10082000FA01F131420FD0B5
:1027300021680A6852070BD50A6822F004020A6071
:1027400094F85C108840A860606D40F001006065FE
:1027500094F85C104FF0010808FA01F0304208D0FC
:1027600021684969090604D5A860606D40F002003F
:10277000606594F85C1004208840304208D02168DD
:102780000968890704D5A860606D40F004006065A1
:1027900094F85C1010208840304218D021680968F5
:1027A000090714D5A86020680168490304D50068AA
:1027B000000308D5A16C07E00168C90503D40168CE
:1027C00021F008010160216C09B12046884794F886
:1027D0005C1020208840304231D021680968C90649
:1027E0002DD5A86094F8350005282068016806D02A
:1027F000490347D5006800031DD4616C1CE021F03B
:10280000160101602068416921F080014161206C5E
:1028100008B9A06C20B12068016821F008010160AE
:1028200094F85C103F208840A86084F8358084F8D4
:102830003490216D1FE0E16B09B120468847606D3F
:1028400000282BD0606DC00714D0052084F8350017
:102850002068016821F0010101600098401C00908F
:10286000B84203D820680068C007F6D184F83580E4
:1028700084F83490E16C002910D001B02046BDE806
:10288000F04308470168C905D5D4016821F010015B
:10289000016084F8358084F83490CCE7BDE8F88393
:1028A000340000202DE9F041044600F09BF9064673
:1028B0005CB1022084F83500002584F8345020688B
:1028C000016821F0010101600DE00120BDE8F08107
:1028D00000F088F9801B052805D9202060650320B9
:1028E00084F83500F2E720680068C007F0D122685C
:1028F000116820480140D4E901031843D4E90336A4
:102900003343184363691843A3691843E3691843C1
:10291000236A18430843616A042903D1D4E90B13DD
:1029200019430843106020684069666A20F0070177
:1029300030460E43012704280CD1A06A0643E06A02
:1029400040B12046FFF72AFE20B14020606584F8A0
:102950003570BAE7206846612046FFF70BFE94F811
:102960005C203F2191408160656584F835700020CE
:10297000ACE700003F8010F02DE9F0410446866D81
:1029800090F83400002501280DD0012084F834008F
:1029900094F835700020012F07D084F83400022508
:1029A0002846BDE8F0810220FBE7022784F8357055
:1029B00060652046FFF71CFE94F85C103F208840BD
:1029C000B0602068016841F016010160206C20B100
:1029D0002068016841F0080101602068016841F049
:1029E00001010160DCE700002DE9F84FDFF8BCA130
:1029F000002201250AF1040B03264FF00F090BF109
:102A0000040E00BF0B6805FA02F42340A34270D104
:102A10000F7907F00307012F01D0022F16D1876825
:102A20004FEA420806FA08FC27EA0C07D1F80CC066
:102A30000CFA08FC4CEA070CC0F808C04768A7432A
:102A40000C79C4F3001494403C4344600C79E44393
:102A5000A4070AD0C4684FEA420C06FA0CF7BC433C
:102A60008F6807FA0CF72743C7600C7904F003045A
:102A7000022C12D1D40800EB840CDCF8204057075C
:102A8000FF0E09FA07F824EA0804D1F8108008FAC2
:102A900007F848EA0408CCF8208004684FEA420CA2
:102AA00006FA0CF7BC430F7907F0030707FA0CF797
:102AB000274307604C6814F4403F70D03C4C2768B3
:102AC00047F480472760246822F0030704F4804419
:102AD0000094384C07EB040CDCF8084897074FEAE1
:102AE000177809FA08F7BC43334FB84202D10027E0
:102AF00024E054E0314FB84201D101271EE0304FAD
:102B0000B84201D1022719E02E4FB84201D1032764
:102B100014E02D4FB84201D104270FE02B4FB842EB
:102B200001D105270AE02A4FB84201D1062705E066
:102B3000284FB84201D1072700E0082707FA08F715
:102B40002743CCF80878DAF800405746D1F804C09B
:102B50009C435FEACC3C00D51C433C60DBF8004062
:102B60005F46D1F804C09C435FEA8C3C00D51C430F
:102B70003C60DEF800407746D1F804C09C435FEA31
:102B8000CC2C00D51C433C60084F0C373C68D1F876
:102B900004C09C435FEA8C2C00D51C433C60521C53
:102BA000102AFFF42FAFBDE8F88F0000003C014071
:102BB000443802400030014000000240000402405E
:102BC00000080240000C02400010024000140240C5
:102BD00000180240001C02400AB1816170470904DC
:102BE000FBE70000014880687047000028000020D3
:102BF00002488168027811448160704728000020F3
:102C00000B4810B5016841F400710160016841F49E
:102C100080610160016841F480710160032000F06F
:102C200091F8002000F006F800F024F8002010BD14
:102C3000003C024070B50D4D04464FF47A7128787F
:102C4000B1FBF0F00A490968B1FBF0F000F02CFB91
:102C500048B9102C07D200222146501E00F052F82D
:102C600000206C6070BD012070BD000028000020B5
:102C7000340000201B4808B5016841F48041016020
:102C8000006800F4804000901648001F016841F081
:102C9000805101600068002200F080500090012106
:102CA0006FF00B0000F02EF8002201216FF00A00F7
:102CB00000F028F8002201216FF0090000F022F84E
:102CC00001210022881F00F01DF801210022481F69
:102CD00000F018F800220121BDE80840C81E00F0ED
:102CE00011B8000044380240002809DB00F01F0240
:102CF000012191404009800000F1E020C0F800115E
:102D000070470000F0B40E4B1B680C46C3F302235F
:102D1000C3F10705042D00D90425191D072901D287
:102D2000002300E0DB1E012606FA05F1491E2140C2
:102D300099409E40761E16403143F0BC01F057BDCD
:102D40000CED00E0064900F0070208684FF6FF03AB
:102D5000184040EA0220034A104308607047000010
:102D60000CED00E00000FA052DE9F0470E460500E5
:102D700065D0DFF81481D8F80000F7B200F0070042
:102D8000B04207D288F80070D8F8000000F00700C1
:102D9000B04254D128683D4C810712D5400703D575
:102DA000206840F4E05020602878000703D52068B0
:102DB00040F4604020602068A96820F0F0000843DB
:102DC00020602878C0072DD030496868083901286C
:102DD00012D0022813D0032811D0096889070029CE
:102DE0002DDA216821F0030101432160FFF7FAFE8B
:102DF000814641F2883A0EE009688903EFE70968E5
:102E00008901ECE7FFF7EEFEA0EB0901514502D97D
:102E10000320BDE8F0872068696800F00C00B0EB83
:102E2000810FEFD1D8F80010404601F00701B14200
:102E300007D90770006800F00700B04201D00120F8
:102E4000E7E72878400705D52068E96820F4E050D6
:102E5000084320602878000706D52068296920F4F7
:102E6000604040EAC100206000F038F82168084A5C
:102E7000C1F30311515CC840064908600648006868
:102E8000FFF7D8FE0020C4E7003C024008380240AB
:102E900094560008340000202C0000200448054906
:102EA00000680968044AC1F38221515CC840704738
:102EB0003400002008380240A456000804480549A0
:102EC00000680968044AC1F34231515CC840704748
:102ED0003400002008380240A4560008154810B5F8
:102EE000006810F00C02144813D04110042A0FD0CF
:102EF000082A0ED10F4C241F2268236802F03F02DB
:102F00005B0207D52068C0F38810A0FB010106E032
:102F1000084610BD2168C1F38811A1FB0001002300
:102F2000FDF7B8F92168C1F30141491C4900B0FB24
:102F3000F1F010BD083802400024F4002DE9F84FEC
:102F400004006ED02078DFF84C93C007A9F1040587
:102F50004AD009F104000168C1F38101012908D0B8
:102F60000068C0F3810002280AD1D9F800004002AD
:102F700006D52868800337D560680028E1D033E0A3
:102F80006068B0F5803F10D0B0F5A02F286810D051
:102F900020F480302860286820F480202860606851
:102FA000A8B1FFF71FFE06460DE0286840F4803008
:102FB000F4E740F480202860F7E700BFFFF712FE37
:102FC000801B642873D828688003F7D50CE0FFF7CE
:102FD00009FE064605E000BFFFF704FE801B6428DB
:102FE000F0D828688003F7D42078DFF8AC82800717
:102FF0004FF0000A3ED5A748001D016811F00C0FE4
:1030000008D00068C0F3810002280BD1D9F8000075
:10301000400207D42868800716D5E068012800D14F
:1030200012E033E1E068B8B10120C8F80000FFF712
:10303000D9FD064605E000BFFFF7D4FD801B02283E
:10304000C0D828688007F7D52868216920F0F800E3
:1030500040EAC10028600DE0C8F800A0FFF7C2FDFB
:10306000064604E0FFF7BEFD801B02281FD8286833
:103070008007F7D42078000722D5864F87486169FA
:10308000703771B101210160FFF7ACFD064604E025
:10309000FFF7A8FD801B022809D838688007F7D5FC
:1030A0000EE0C0F800A0FFF79DFD064605E082E0B7
:1030B000FFF798FD801B02287DD838688007F7D479
:1030C0002078400768D5DFF8CCB100270BF13C0B26
:1030D000DBF80000C0000BD4DBF8001041F0805199
:1030E000CBF80010DBF80000012700F080500090C2
:1030F0006B4E3068C00510D4306840F4807030608A
:10310000FFF770FD009005E0FFF76CFD0099401A95
:10311000022850D83068C005F6D55E4EA0686C36DF
:1031200001280FD00528306810D020F00100306051
:10313000306820F004003060A068B8B1FFF752FD9D
:1031400000900FE0306840F00100F4E740F0040028
:103150003060F7E7FFF746FD0099411A41F28830E9
:10316000814266D830688007F4D50EE0FFF73AFD5B
:10317000009007E0FFF736FD0099411A41F28830D0
:10318000814256D830688007F4D42FB1DBF80010A4
:1031900021F08051CBF80010A069C8B33D49091D4A
:1031A0000968C1F3810102294AD00228504607D09C
:1031B000C8F8600000E03CE0FFF714FD04463BE087
:1031C0004746C8F86000FFF70DFD064605E000BF62
:1031D000FFF708FD801B02282BD828688001F7D450
:1031E000D4E907010843A16A2E4A490802EB0141CC
:1031F000626A41EA8211084394F82C1040EA0161A6
:10320000C9F8001001203866FFF7ECFC044606E020
:103210003EE000BFFFF7E6FC001B022809D8286843
:103220008001F7D534E000BFFFF7DCFC001B02286B
:1032300002D90320BDE8F88F28688001F4D427E084
:103240000128F7D0D9F80000E26900F4800191422A
:103250001CD1226A00F03F01914217D147F6C0719C
:10326000626A0140B1EB821F10D1A26A4FF0FF33B6
:1032700000F4403103EB5202B1EB024F06D194F857
:103280002C1000F07060B0EB016F01D00120D1E78D
:103290000020CFE70438024000004742800E47423A
:1032A000007000400000FFFF10B5401EB0F1807FAD
:1032B00001D3012010BD4FF0E02460610F216017A1
:1032C00001F095FA0020A06107202061002010BDC8
:1032D0007047704770B590F83C20012A32D0012425
:1032E00080F83C40022280F83D2003685A689D68BF
:1032F00022F070060A6832435A60134B02689A4201
:1033000014D0B2F1804F11D0104B9A420ED0104B16
:103310009A420BD00F4B9A4208D00F4B9A4205D0DD
:103320000E4B9A4202D00E4B9A4204D1496825F0C6
:1033300080031943916080F83D40002180F83C10E3
:10334000084670BD022070BD00000140000400402E
:1033500000080040000C0040000401400040014013
:103360000018004010B5040003D094F83D0010B1DF
:1033700007E0012010BD002084F83C00204600F04A
:103380001FF8022084F83D00211D206800F01CFF7A
:10339000012084F8460084F83E0084F83F0084F859
:1033A000400084F8410084F8420084F8430084F827
:1033B000440084F8450084F83D00002010BD000062
:1033C00008B500680B49884212D10B48016841F0EA
:1033D000020101600068002200F002000090114626
:1033E0001D20FFF78FFCBDE808401D20FFF77CBCC7
:1033F00008BD0000000400404038024090F83D1035
:10340000012901D001207047022180F83D10016898
:10341000CA6842F00102CA6000681149884214D0AB
:10342000B0F1804F11D00F4988420ED00E4988422A
:103430000BD00E49884208D00D49884205D00D496D
:10344000884202D00C49884204D1816801F007010A
:10345000062903D0016841F0010101600020704796
:10346000000001400004004000080040000C004043
:1034700000040140004001400018004070B50446BF
:1034800090F83C000025012817D0012684F83C6004
:10349000022084F83D002068826822F0770222F43E
:1034A0007F4282600868502838D00DDC20284FD039
:1034B00005DC90B3102811D14AE0022070BD3028FD
:1034C00046D040280AD13BE060282FD070280DD08C
:1034D000B0F5805F03D0B0F5005F12D0012584F80D
:1034E0003D60002084F83C00284670BDCB68D1E9DF
:1034F0000121206800F0D9FE2068816841F0770141
:1035000009E0CB68D1E90121206800F0CEFE2068F7
:10351000816841F480418160E1E719E0CA68496847
:10352000206800F097FF5021206806E0CA684968CB
:10353000206800F0A0FF6021206800F0C0FECEE708
:10354000CA684968206800F085FF40212068F4E7D8
:10355000226801461046F0E72DE9F0410D460400CF
:1035600003D094F83D0018B108E00120BDE8F081D7
:10357000002084F83C00204600F040F8022084F847
:103580003D002068816844F2070291438160211D5B
:10359000206800F019FE226890689169166A2B680D
:1035A000AF69034340F20330814341EA0721A86831
:1035B000EF6908434FF6FC418843E96840EA072079
:1035C000014328692F6A000140EA0730084369680F
:1035D0006D6926F0AA0646EA05152943936022681C
:1035E000906154F8460B0162012004F81F09E07550
:1035F0002076E0762077A0750020B7E710B586B07A
:10360000044614216846FDF778F81349206888427B
:1036100020D112480021026842F0010202600068D5
:1036200000F0010005900D481438026842F01002C5
:103630000260006800F0100005904FF420600090D8
:103640000220CDE901010120CDE9031069460448BB
:10365000FFF7CAF906B010BD00000140443802402F
:103660000010024070B590F83E60044690F83F505C
:1036700090F8423090F84320022021B104290ED066
:10368000012E1BD114E0012E18D1012B16D184F884
:103690003E0084F8420001220021206820E0012D34
:1036A0000CD1012A0AD184F83F0084F8430014E0C9
:1036B000012D03D1012B01D1012A01D0012070BDC0
:1036C00084F83E0084F83F0084F8420084F8430008
:1036D00001220021206800F0DBFD01220421206886
:1036E00000F0D6FD2068016841F001010160002072
:1036F00070BD704770B50446006801694FF0000561
:10370000C943890715D4C168C943890711D4E91E83
:10371000016101202077206880698007204602D05F
:10372000FFF7E7FF04E000F0C3F8204600F068F977
:10373000257720680169C943490717D4C168C9437F
:10374000490713D46FF0040101610220207720683B
:10375000806910F4407F204602D0FFF7CAFF04E0E2
:1037600000F0A6F8204600F04BF9257720680169A3
:10377000C943090716D4C168C943090712D46FF0B9
:1037800008010161042020772068C0698007204675
:1037900002D0FFF7AEFF04E000F08AF8204600F008
:1037A0002FF9257720680169C943C90617D4C16874
:1037B000C943C90613D46FF01001016108202077B6
:1037C0002068C06910F4407F204602D0FFF791FFC7
:1037D00004E000F06DF8204600F012F9257720682B
:1037E0000169C943C90708D1C168C943C90704D1E0
:1037F000891E0161204600F069F920680169C9430A
:10380000090609D4C168C943090605D46FF08001CF
:1038100001612046FFF75CFD20680169C943490644
:1038200009D4C168C943490605D46FF0400101615C
:10383000204600F061F920680169C94389060BD46C
:10384000C168C943890607D46FF020010161204691
:10385000BDE87040FFF73DBD70BD000010B586B0FB
:10386000044614216846FCF748FF0E492068884248
:1038700015D10D480021026842F010020260006874
:1038800000F010000590602000900220CDE90101B9
:103890000320CDE9031069460448FFF7A5F806B0F8
:1038A00010BD0000004001403038024000100240CE
:1038B000704770B5044690F83C0000260D4601287C
:1038C0000FD0012084F83C006AB1042A1DD0082AD8
:1038D0002FD00C2A3FD00126002084F83C0030462F
:1038E00070BD022070BD206800F0F2FC2068816984
:1038F00041F0080181612068816921F00401816142
:10390000206881692A69114311E0206800F010FDE8
:103910002068816941F4006181612068816921F436
:1039200080618161206881692A6941EA022181619F
:10393000D2E7206800F032FD2068C16941F008013B
:10394000C1612068C16921F00401C1612068C169B9
:103950002A69114311E0206800F054FD2068C16914
:1039600041F40061C1612068C16921F48061C161D5
:103970002068C1692A6941EA0221C161ACE710B53A
:10398000040003D094F83D0010B107E0012010BD01
:10399000002084F83C00204600F01EF8022084F845
:1039A0003D00211D206800F00FFC012084F8460036
:1039B00084F83E0084F83F0084F8400084F8410019
:1039C00084F8420084F8430084F8440084F84500F9
:1039D00084F83D00002010BD08B500680649884203
:1039E00008D10648016841F480310160006800F4A4
:1039F0008030009008BD0000004001404438024083
:103A00007047000010B50446022249B104290ED0C7
:103A1000082913D094F84100012816D0012010BDC8
:103A200094F83E000128F9D184F83E200FE094F884
:103A30003F000128F2D184F83F2008E094F84000CC
:103A40000128EBD184F8402001E084F841200122D4
:103A5000206800F01DFC16492068164A884201D0F3
:103A6000904203D1436C43F400434364206888428E
:103A700013D0B0F1804F10D00F4988420DD00F49BC
:103A800088420AD00E49884207D0904205D00D499D
:103A9000884202D00C49884204D1816801F00701B4
:103AA000062903D0016841F001010160002010BD2A
:103AB00000000140000401400004004000080040F4
:103AC000000C0040004001400018004000B50068B4
:103AD000074988420AD101F063FA06480121417082
:103AE0008189B1F5FA6F01D2491C818100BD0000C6
:103AF000000400400000002070477047704700003D
:103B0000F8B5016804460868CA684B6910F00F0FE1
:103B10004FF0000559D003F0010602F490773743C7
:103B200065D0C10705D0D10503D5216C41F0010155
:103B30002164410705D5D90703D0216C41F002016A
:103B40002164810705D5D90703D0216C41F0040118
:103B50002164010707D502F02001314303D0216C15
:103B600041F008012164216C00293AD0800604D577
:103B7000900602D5204600F018FD20684069216CAF
:103B8000C0F38010090700D460B3204600F0D8FCD1
:103B900020684069400621D52068143050E8001F95
:103BA00021F0400140E80012002AF5D1A06BA8B135
:103BB0006C490165A06BFEF792FD002811D0A06B47
:103BC000016D01B0BDE8F040084783060FD59306AC
:103BD0000DD52046BDE8F84000F0E7BC2046FFF7D1
:103BE0008DFFF8BD2046FFF789FF2564F8BD266BE1
:103BF0002023012E79D1C60677D5D60675D508685B
:103C0000486800904869400640D5A16B0868406844
:103C10000004000CEAD0A28D8242E7D9E085C86991
:103C2000B0F5807F2DD020680C3050E8001F21F4C3
:103C3000807140E80012002AF5D12068143050E865
:103C4000001F21F0010140E80012002AF5D1206890
:103C5000143050E8001F21F0400140E80012002A13
:103C6000F5D184F83E30256320680C3050E8001F01
:103C700021F0100140E80012002AF5D1A06BFEF7F8
:103C8000E5FCA08DE18D401A81B229E0A08DE18D87
:103C9000401A81B2E08D0028A8D00029A6D0206863
:103CA0000C3050E8002F22F4907240E80026002EDD
:103CB000F5D12068143050E8002F22F0010240E8CE
:103CC0000026002EF5D184F83E30256320680C30A4
:103CD00050E8002F22F0100240E80023002BF5D11D
:103CE0002046FFF70AFFF8BDFFE705062BD51506AE
:103CF00029D594F83D002128F5D1A068B0F5805F62
:103D000001D12069B0B1206A411C2162216800788C
:103D10004860E08C401E0004000CE084E3D1206881
:103D2000C16821F08001C1602068C16841F0400194
:103D3000C160D8E7206A0088C0F308004860206AA4
:103D4000801C2062E5E74006CDD55006CBD5CA6879
:103D5000204622F04002CA6084F83D3000F00CF9A1
:103D6000C1E700009B44000870B5040004D094F83B
:103D70003D00002510B106E0012070BD84F83C50E4
:103D8000204600F023F8242084F83D002068C16814
:103D900021F40051C160204600F068FC20680169F0
:103DA00021F4904101612068416921F02A014161BB
:103DB0002068C16841F40051C1602564202084F866
:103DC0003D0084F83E00002070BD000070B586B054
:103DD000064614216846FCF790FC23493068884267
:103DE00040D122480025016841F40031016000689B
:103DF00000F4003005901D481038016841F00101C1
:103E000001600068694600F0010005900C200090F8
:103E10000220CDE9010503200390072004901448F7
:103E2000FEF7E2FD144C134820604FF00060606024
:103E30004020C4E902050001C4E90405A561E5616B
:103E4000256220466562FEF72DFD08B1FEF7E5FB11
:103E50007463002201212620A663FEF753FF26206B
:103E6000FEF742FF06B070BD0044004040380240FB
:103E700000000240A0600240B801002090F83E30EF
:103E8000202B0ED159B152B190F83C30012B08D003
:103E9000012380F83C300023036300F06DBC012057
:103EA000704702207047000010B50E49006809688D
:103EB000884216D10C494A790A2A06D0094B8878DB
:103EC00080331A54401C887003E00020887000F092
:103ED0005FFF05490122BDE81040491D0148FFF779
:103EE000CDBF10BD100100200000002070B50446B9
:103EF00090F83D00202836D191B38AB394F83C0065
:103F0000012830D0012084F83C002162A284E284A0
:103F100000252564212084F83D00636B1348D86395
:103F2000636B13481864636B1248D864606B134664
:103F300005652668606B321DFEF71EFD21686FF077
:103F40004000086084F83C502068143050E8001F9E
:103F500041F0800140E80012002AF5D1002070BD38
:103F6000FFE70120FBE70220F9E70000F544000825
:103F700037450008AB44000870477047FEE7000073
:103F800010B58CB024216846FCF7B7FB0024164816
:103F9000099414490A94C0E900144FF6FF71C0E96E
:103FA00002410461446184610320CDE900040120E1
:103FB000CDE902040494CDE90540079469460A4816
:103FC0000894FFF7C9FA08B172B6FEE7099409A987
:103FD00005480A94FFF77EF9002801D072B6FEE783
:103FE0000CB010BD000001403800002010B586B0B4
:103FF00000241748009401940294039404941349F4
:104000000594016040F24731C0E9011440F6B73130
:10401000C0E903148461FFF7A5F908B172B6FEE7A1
:104020004FF48050009069460948FFF727FA08B11D
:1040300072B6FEE7049404A905480594FFF74AF90F
:10404000002801D072B6FEE706B010BD00040040A3
:104050008000002010B588B01C216846FCF74DFB9D
:1040600016481549002401600E21C0E9011440F2F0
:10407000E731C0E903148461FFF781FC08B172B62F
:10408000FEE76020CDE900040294002269460B4857
:104090000494FFF70EFC08B172B6FEE704226946ED
:1040A0000648FFF706FC08B172B6FEE70348FFF7C3
:1040B000D5FB08B010BD000000400140C800002042
:1040C000FEE7FEE730EE600AD0ED040A9FED0F1A1E
:1040D00040EE010AC0ED040A90ED032AD0ED021A69
:1040E00030EE422A21EE822AC2EE011A90ED011A28
:1040F00061EE200A90ED001A41EE000A71EEA00A6E
:10410000C1ED000A80ED030A704700008FC2F53C44
:1041100070477047FEF76CBD30B593B030216846EC
:10412000FCF7EBFA14210CA8FCF7E7FA1D48002570
:10413000016841F080510160006800F080501190EA
:104140001948016841F4804101600068022400F4CC
:104150008040119001200090000401908001CDE981
:104160000640082008904FF4A870CDE90904042007
:104170000B906846FEF7E2FE08B172B6FEE70CA9A6
:104180000F2081E831004FF4A0500F9010900521CE
:104190000CA8FEF7E9FD002801D072B6FEE713B0C7
:1041A00030BD000040380240007000400248016805
:1041B00041F470010160704788ED00E00148FFF7AD
:1041C00099BA000080000020F0B50268254C264D09
:1041D000264E274F274B4FF0804CA04209D0604518
:1041E00007D0A84205D0B04203D0B84201D09842CF
:1041F00004D122F0700E4A6842EA0E02A0421BD09F
:10420000604519D0A84217D0B04215D0B84213D09B
:10421000984211D0184DA8420ED0184DA8420BD08C
:10422000174DA84208D0174DA84205D0164DA842F8
:1042300002D0164DA84203D122F44075CA682A4321
:104240004D6922F080022A4302608A68C2620A68CD
:104250008262A04201D0984201D109690163012123
:104260004161F0BD00000140000400400008004032
:10427000000C0040000401400040014000440140A7
:104280000048014000180040001C00400020004091
:1042900010B501F01F030121046A99408C430462A8
:1042A000016A9A401143016210BD10B5846842EA68
:1042B000032224F47F440A432243826010BD8268B3
:1042C00022F070020A4342F007018160704700004B
:1042D000F0B5026A22F001020262036A4268846950
:1042E000124E24F073050C682C4323F002058B68F2
:1042F0002B430D4DA84201D0B04205D123F0080751
:10430000CB683B4323F00403A84201D0B04205D15F
:104310004D6922F4407215438A692A4342608461E0
:10432000496841630362F0BD0000014000040140A0
:10433000F0B5026A22F010020262026A43688469E0
:104340000D6824F4E64444EA05248D6822F0200236
:1043500042EA05120F4D104EA84201D0B04206D1DC
:10436000CF6822F0800242EA071222F04002A842FF
:1043700001D0B04207D14D6923F4406343EA85037D
:104380008D6943EA85034360846149688163026201
:10439000F0BD00000000014000040140F0B5026AD9
:1043A00022F480720262026A4368C46922F40072D5
:1043B00024F073050C68124E2C438D6842EA0522E6
:1043C0000E4DA84201D0B04206D1CF6822F400625F
:1043D00042EA072222F48062A84201D0B04207D10B
:1043E0004D6923F4405343EA05138D6943EA0513ED
:1043F0004360C4614968C1630262F0BD00000140CE
:104400000004014030B5026A22F480520262046A5C
:104410004268C3690D6823F4E64343EA05238D68C7
:1044200024F4005444EA0534084DA84202D0084D53
:10443000A84204D14D6922F4804242EA85124260CA
:10444000C36149680164046230BD0000000001409E
:104450000004014010B5036A046A24F001040462F8
:10446000846924F0F00444EA021423F00A020A43A7
:104470008461026210BD10B5036A23F01003036269
:104480008369046A23F4704343EA023224F0A003F0
:1044900043EA01118261016210BD10B5806B0021F9
:1044A000C185C184FFF72AFB10BD70B5846B2068FD
:1044B000406994F83D10C0F3C0100025212904D1B3
:1044C00018B1E584204600F062F82068406994F84D
:1044D0003E10C0F38010222904D118B1E585204692
:1044E00000F02EF8206C40F0100020642046FFF70A
:1044F00005FB70BD10B50146806B09680968C905E8
:1045000016D40021C1840168143151E8002F22F033
:10451000800241E80023002BF5D101680C3151E8FD
:10452000002F42F0400241E80023002BF5D110BDDE
:10453000FFF722FD10BD10B5806BFFF71EFD10BD0B
:1045400001680C3151E8002F22F4907241E80023F9
:10455000002BF5D10168143151E8002F22F001023F
:1045600041E80023002BF5D1016B012909D1016835
:104570000C3151E8002F22F0100241E80023002BFB
:10458000F5D1202180F83E100021016370470168B9
:104590000C3151E8002F22F0C00241E80023002B2B
:1045A000F5D1202180F83D10704708B590F83E10F5
:1045B000222901D0022008BD82684FF480539A421C
:1045C00001D1016921B1816A9A421BD04AB10AE046
:1045D0000268816A5268C2F308020A80816A891CF3
:1045E00008E0026972B10268526802F07F020A7044
:1045F000816A491C8162C18D491E0904090CC1856B
:1046000003D019E002685268F1E70168CA6822F035
:104610002002CA600168CA6822F48072CA60016818
:104620004A6922F001024A61202180F83E10016BA4
:10463000012903D0FFF738FC002008BD00210163E9
:1046400001680C3151E8002F22F0100241E80023EC
:10465000002BF5D101680A68D20602D50A684968BC
:104660000091818DFFF749FAE6E7000070B5044636
:1046700000680169E26821F4405111430161216938
:10468000A068E26908436169114308432168CA6868
:1046900049F20C639A430243CA6020684169A269E7
:1046A00021F440711143416131492068884202D0B0
:1046B0003049884202D1FEF701FC01E0FEF7EEFB33
:1046C000E2690023192164253226B2F5004F6268A1
:1046D00028D0A0FB0101930F9200FBF7DBFD014600
:1046E000B0FBF5F06FF01802504301EB800006EBD1
:1046F0000010B0FBF5F000F0F002B1FBF5F002EBBA
:104700000012B1FBF5F06FF01803584301EB800085
:1047100006EB0010B0FBF5F000F00F00216810442C
:10472000886070BDA0FB010192185B41FBF7B2FDF0
:104730000146B0FBF5F00201B1FBF5F06FF0180394
:10474000584301EB800006EBC000B0FBF5F000F031
:10475000F80002EB4002B1FBF5F0584301EB80009A
:1047600006EBC000B0FBF5F000F00700D6E7000054
:10477000001001400014014081628285C285002141
:104780000164222280F83E2080F83C100168CA684B
:1047900042F48072CA6001684A6942F001024A61CB
:1047A0000068C16841F02001C1600020704700002E
:1047B0000148FFF7A5B9000010010020FEE703B48F
:1047C00001984100009850EAC12018BF04204A0D0A
:1047D00018BF40F0010040F2FF72B2EB515F08BF1A
:1047E00040F00200012808BF052002B07047090709
:1047F000090E002804DB00F1E02080F80014704767
:1048000000F00F0000F1E02080F8141D7047000058
:1048100030B52DED048B81B0B0EE408AF0EE608AA9
:104820006A4651EC180B00F013F900989FED329B8B
:104830007E300090002821DC53EC192B51EC180B32
:1048400000F07AFC1AD0002140F608004FF000007A
:10485000044651EC180B00F029FC08EE100A40F653
:10486000080004EA00014FF00000B5EEC08AF1EE46
:1048700010FA04BF0220FCF7AAFF2DE00098FF28E1
:1048800030DB002108464FF0000000F4400553ECF7
:10489000192B51EC180B00F0C5FD8CBF002401242E
:1048A0000220FCF794FF9FED168A4DB1002C0CBF3F
:1048B0004FF400004FF48000A84218BF9FED118A0A
:1048C000042108464FF00000002C01BFB1EE480A59
:1048D00001B0BDEC048B30BDB0EE480A01B0BDECB8
:1048E000048B30BD51EC180B00F0E0FB01B000EE82
:1048F000100ABDEC048B30BD000000000000000079
:104900000000807FFFFF7F7F30B540F2FF742DED08
:10491000048BF0EE608A18EE901A85B0B0EE408AF3
:104920009FED2B9B05468DED008B34EA115147D04E
:1049300053EC192B51EC180B00F0FEFB40D02A462B
:1049400051EC180B00F056FE41EC180B18EE900AD3
:104950008DED008B34EA10501CD053EC192B51EC28
:10496000180B00F0E9FB2BD10220FCF730FF00F020
:1049700043F810EE901A18EE900A8DED020B8DEDB3
:10498000008B61F31E0003909DED020B05B0BDECA2
:10499000048B30BD0220FCF71AFF00F01DF810EE6A
:1049A000901A18EE900A8DED020B8DED008B61F3DD
:1049B0001E0003909DED020B05B0BDEC048B30BDD5
:1049C00005B0B0EE480AF0EE680ABDEC048B30BDCD
:1049D00000000000000000009FED050B10B553EC37
:1049E000102B51EC100B00F01FFC41EC100B10BD14
:1049F00000000000000000709FED050B10B553ECA7
:104A0000102B51EC100B00F00FFC41EC100B10BD03
:104A1000000000000000001010B5044691ED000BEE
:104A2000FFF7F6FE84ED000A10BD10B5044690EDC8
:104A3000000B0846FFF768FF84ED000B10BD30380F
:104A40000A2801D2012070470020704700000000B2
:104A500010B582B01446CDE900010023009A23600E
:104A6000194B21F0004098422ADA024328D0B0F5D1
:104A7000801FA8BF226810DA9FED150B53EC102B96
:104A80009DED000B51EC100B00F0CEFBCDE90001C9
:104A90006FF0350221F0004022600F4B6FF31E5182
:104AA00003EB20501044206041F0FF5040F00050D4
:104AB00001909DED000B00BF02B051EC100B10BD3A
:104AC0009DED000BF8E700000000F07F0000000003
:104AD000000000000000504302FCFFFF10B58CB046
:104AE00024216846FBF709FE002415480994134960
:104AF0000A9401600121C0E901144FF6FF72C0E978
:104B0000032444618461CDE90014CDE902140494C6
:104B1000CDE90541079469460894FEF71DFD08B1EB
:104B200072B6FEE7099409A905480A94FEF7D2FB7C
:104B3000002801D072B6FEE70CB010BD00000140A5
:104B40003800002010B58CB024216846FBF7D5FD55
:104B500000241648099414490A94C0E900144FF639
:104B6000FF71C0E902410461446184610320CDE921
:104B700000040120CDE902040494CDE90540079426
:104B800069460A480894FEF7E7FC08B172B6FEE7EA
:104B9000099409A905480A94FEF79CFB002801D056
:104BA00072B6FEE70CB010BD0000014038000020D6
:104BB0002DED028B84B0FEF723F8FFF7ADFA684DB8
:104BC0000024286840F010002860286800F01000D9
:104BD0000090286840F080002860286800F080007D
:104BE0000090286840F001002860286800F001006B
:104BF0000090FFF7C5F9FFF7F9F9FFF72BFA2868DE
:104C000040F4001028602868002200F40010009092
:104C100011461120FEF776F81120FEF765F852488C
:104C2000504901604FF4E131C0E901140C21C46026
:104C3000C0E904418461C461FFF796F808B172B617
:104C4000FEE749489038FEF7D9FB47480421D83899
:104C5000FEF708FD444800214838FEF7D3FE4248DD
:104C600004214838FEF7CEFE012240493E48FFF7B6
:104C700005F93E4FB7F1050797ED060A00F0A0F9D8
:104C800078780028F8D07C70387818B3012826D0BE
:104C90000228F1D178890028EED134493889491D9C
:104CA000FDF7BEFC38790028E6D02F487B89012229
:104CB0002FA15830FBF766FB2B485830FBF7FEFC62
:104CC000294982B258312848FFF710F93C713C70ED
:104CD0003C61D1E79FED280A87ED060ACCE797ED06
:104CE000040A78899FED258AF8EEC00A00EE100AC2
:104CF0001E491D48B8EE401A1331443080EE810A37
:104D000060EE080A97ED070AFFF7DCF9B86900F0D2
:104D1000BFFB97ED040A05467889F8EEC00A00EE5D
:104D2000100A0E46B8EE401A80EE810A20EE080AFC
:104D300010EE100A00F0ACFB0A468DE865000A4848
:104D400000220FA15830FBF71DFB07485830FBF736
:104D5000B5FC054982B258310348FFF7C7F88BE725
:104D600030380240004400401001002005000020BF
:104D700025752025750A0000000000000000B443DE
:104D8000257520252E316620252E32660A0000006A
:104D90002DE9F04F6E4DDFF8BCA12DED028B89B0EF
:104DA000287830282AD15046C31C821D00906AA161
:104DB0002846FBF7BFFB9AF8030054469FED698A2B
:104DC000012802D0022805D018E0002020618AEDD9
:104DD000068A13E05E4814213C38FBF78EFC5C48E1
:104DE0002838FBF76BFC01465A482030FBF785FC5E
:104DF00084ED078A0020206184ED068A54480078FB
:104E000031283FD15248534A3438011F00911C3297
:104E1000CDE901020B1F163A53A13430FBF78AFB90
:104E2000DAF81C0000F034FBDFF824B10646ABF1E1
:104E30003C0B0F46DBF8080000F02AFB04460D4649
:104E4000DBF8040000F024FB80468946DBF8000014
:104E500000F01EFB0B4602468DE80C0304AB022259
:104E600083E8F00044A10BF11400FBF78BFA0BF17F
:104E70001400FBF723FC82B20BF11401A1F15800DE
:104E8000FFF734F8324C207832281ED1314901F135
:104E90000A00CDE90001831E021F3DA12046FBF759
:104EA00049FB03223DA1A4F12800FBF76BFAA4F112
:104EB0002800FBF703FC82B2A4F12801A1F15800FD
:104EC000FFF714F80020CAF81000207833283AD1F0
:104ED00020480090C31D821D1FA11D48FBF72AFB1F
:104EE0009AF807005446012812D1194804222BA130
:104EF0002838FBF747FA16482838FBF7DFFB144938
:104F000082B22839A1F15800FEF7F0FFFFF7E6FD65
:104F1000E079042817D10E48052220A12838FBF794
:104F200031FA0B482838FBF7C9FB094982B2283906
:104F3000A1F15800FEF7DAFF09B0BDEC028BBDE825
:104F4000F04FFFF7FFBD09B0BDEC028BBDE8F08F5D
:104F50009001002000000020257520257520257572
:104F60000000000000000000257520256620256651
:104F70002025662025660000257520252E32662016
:104F8000252E346620252E326620252E32660A0014
:104F900025752025752025752025750025750A00A5
:104FA00005480168486A02B20448426103691A442C
:104FB0000261002048627047380000200000002095
:104FC00070B510EE100AB0F17E5F02DDB7EE000A98
:104FD0000EE0B5EEC00AF1EE10FA02D19FED190A0B
:104FE00006E010EE100A10F1814F01D9BFEE000A61
:104FF000DFED150A164D20EE200A2968BDEEC00A25
:1050000010EE100A04B21148002C08DD4FF0000227
:105010004FF02001FDF7E0FD2868846370BD05D1E5
:105020004FF0000048632968886370BDC4F1000236
:1050300012B24A63BDE870404FF000024FF04001E9
:10504000FDF7CABD000000000000FA430010024056
:10505000C800002010B500290AD00878002807D021
:1050600005487844FCF7EEFD002801D0002010BD73
:105070000248784410BD00000E070000060700003B
:1050800010B500290AD00878002807D005487844D0
:10509000FCF7D8FD002801D0002010BD024878445C
:1050A00010BD0000FE060000F606000021F00042E0
:1050B000A2F16052B2F5801F01F0004328BFD2F187
:1050C0007F6C0BD95FEA001C43EAC20242EB5070CE
:1050D00018BF704728BF20F001007047B2F5801F4D
:1050E000BCBF184670474FEA410C1CF5001F02D2A6
:1050F000084600F043BA70B500F040F9000000899E
:10510000FFF7F6BF4FF00040A0F5800070470000A9
:1051100002494FF0000000F03BBA00BF0000F87FEA
:10512000491058BFC1F140415B1058BFC3F1404323
:105130008B42EFF30080704751EA030C17D41CF543
:10514000801F58BFBCF5801F00F10680994218BF30
:10515000704708BF9042704707D711F5801F58BFAE
:1051600013F5801F19D499427047894270471CF586
:10517000801F08D5BCF5801FF7D58B4218BF70473C
:1051800008BF824270474FF4001C1CEB410F38BF30
:105190001CEB430F01D28B42704770B500F0EEF864
:1051A000922449004FF000514FF08053FFF7B8BFF1
:1051B00051EA030C17D41CF5801F58BFBCF5801FA3
:1051C00000F10680994218BF704708BF90427047AF
:1051D00007D711F5801F58BF13F5801F19D49942C6
:1051E0007047894270471CF5801F08D5BCF5801FA9
:1051F000F7D58B4218BF704708BF824270474FF403
:10520000001C1CEB410F38BF1CEB430F01D28B423B
:10521000704770B500F0B2F8922449004FF0005189
:105220004FF08053FFF77CBFDFF848C170B51CEA30
:10523000111E1EBF1CEA13159EEA0C0F95EA0C0FF7
:1052400000F06F8081EA030423EA4C134EEAD47E17
:1052500021EA4C1141F4801143F48013AE44A1FBC8
:10526000024CA0FB0365AEF17F7E361955EB0C05B1
:10527000A1FB034C4CF10003A0FB021C16EB0C0637
:10528000654153F10003094218BF46F0010613F4CB
:10529000007F0BD14FEA03314FEA0530340341EA76
:1052A000155140EA16506FF003020AE04FEAC3219D
:1052B0004FEAC520F40241EA555140EA56506FF0DA
:1052C000020202EB2E4201EB025585EACE710AD0B2
:1052D0005FEA440C18BF24F0004450F1000041F193
:1052E000000120EAD47040F2FE7C624500D270BD1D
:1052F000A84214BF4FF080444FF04044002E08BF36
:105300000024BEF1806FA8BFA1F1C041BDE870408C
:1053100080F282804FF0000001F1C04101F00041B5
:1053200070479EEA0C0F0CEA131518BF95EA0C0F94
:1053300006D04FF0000081EA030E0EF0004170BD70
:1053400000F01CF88900013E00F007B800F009B831
:105350004FEA430C5FEA5C5C08D081EA030100F08D
:105360005BB84FEA410C5FEA5C5CF6D14FF000009D
:10537000014970470000FF070000F87F0EF1020EA0
:105380002EF0030E5EF8046B364205D4012A43EB7F
:10539000030515F5001F12D8012841EB010C1CF57F
:1053A000001F0CD80ED14FEAD17C15F5001F0CEB75
:1053B0004C0C0CF1020C08BF4CEBD37C04E04FF01A
:1053C000080C01E04FEAD37C0CEB4C0526FA05F6FD
:1053D00006F00706B6F1040C06D20EEB860CBDE80B
:1053E00070404CF0010C6047DFE80CF0090B020242
:1053F0004FF000414FF00000A1F5002170BD1946AB
:105400001046012851EB010418BFD4F5001484BFE5
:10541000002001F0004170BD0808A0F500114FEA1E
:105420003101704753EA010C17D41CF5801F58BF97
:10543000BCF5801F00F106808B4218BF704708BF83
:105440008242704707D713F5801F58BF11F5801FA0
:1054500019D48B4270479B4270471CF5801F08D5BA
:10546000BCF5801FF7D5994218BF704708BF90421E
:1054700070474FF4001C1CEB430F38BF1CEB410F6F
:1054800001D2994270470FB40CBC03BCFFF7C1BEF8
:1054900043004FEAD30C4FEA3C0C43401FBF400788
:1054A0000CF1605113F0FE4F70471CF0006F03D1F8
:1054B00000200CF0004170470CF0004343EA5070AC
:1054C00010B540EACC0000F00EF800BF00000092DA
:1054D0004FEA0001FFF7A0BF4FF000414FF000007E
:1054E000A1F5002170470EF1020E2EF0030E5EF8BA
:1054F000044B244204D44FEA4102B2F17F4F11D849
:105500004FEA4003B3F17F4F0CD80ED14FEAD07C65
:10551000B2F17F4F0CEB4C0C0CF1020C08BF4CEBC2
:10552000D17C04E04FF0080C01E04FEAD17C0CEB99
:105530004C0324FA03F404F00704B4F1040C06D27B
:105540000EEB840CBDE810404CF0010C6047DFE826
:105550000CF0070802024FF00040A0F5800010BDDB
:105560000846420018BFD2F1807288BF00F00040A8
:1055700010BD4FF04070E1EE100A7047FF2141EA84
:10558000D050C00570474FF000007047FBF711BACC
:105590000CF00F03092B08BF082000F05F800A2BD6
:1055A0000BD0082B18BF704708BF1CF0400F0AD063
:1055B0004FF000004FF0000170471CF0400F18BF83
:1055C0004FF0004070471CF0100F08D020F07043DF
:1055D00000F07F4242EAD3014FEA4370704700F087
:1055E000604021F07F4242EA000201F07F4040EA41
:1055F000727070474FF0FF0C4CF4E06C1CEA1153D2
:105600001CBF9CEA030C9445C2BFDA4201EB025175
:105610007047002B0DD0BCF1000F0FD0002A01F015
:105620000041A4BF41F0E04141F07F614FF0000034
:10563000704701F000414FF00000704750EA01331D
:105640004FF09B0C18BF4CF0806C7FF461AD70473D
:10565000FBF738BCFCF7C2B8FCF750BA1CF4801F4B
:1056600011D01CF4E02F03D06FEACC314900704711
:105670004FF04050EFF3008222F0704242EA000205
:1056800082F3008870474FF0000070470006101644
:1056900000061016000000000000000001020304D4
:1056A0000607080900000000010203040240000090
:1056B000000000A00000000005400000000000C83D
:1056C000000000000C4000000000409C00000000B2
:1056D000194000000020BCBE000000003440000063
:1056E000BFC91B8E00000004B5400000504BCFD056
:1056F0006607E2CF010000006C4100003E8251AA23
:10570000DFEEA73401000000D9420000DCB5A0E2C2
:105710003A301F97FFFFFFFFB4450000FD25A0C8EA
:10572000E9A3C14FFFFFFFFFFF3F00000000008023
:1057300000000000FF3F00000000008000000000AB
:105740009C5800080000002038000000C401000838
:10575000D45800083800002040080000E00100088C
:10576000000000000000F07FFFFFFFFFFFFFEF7F62
:105770001C00000043000000F8FFFFFF0C000000C9
:105780000E0000000F0000002E00000010010000BD
:1057900043000000F8FFFFFF004040404040404011
:1057A00040404141414141404040404040404040F4
:1057B0004040404040404040400502020202020298
:1057C00002020202020202020220202020202020E7
:1057D00020202002020202020202909090909090FB
:1057E00010101010101010101010101010101010B9
:1057F000101010100202020202028888888888882D
:105800000808080808080808080808080808080818
:105810000808080802020202400000000000000020
:105820000000000000000000000000000000000078
:105830000000000000000000000000000000000068
:105840000000000000000000000000000000000058
:105850000000000000000000000000000000000048
:105860000000000000000000000000000000000038
:105870000000000000000000000000000000000028
:105880000000000000000000000000000000000018
:105890000000000000000000000000000000000503
:1058A00000000000010001000000000000000000F6
:1058B00000000000000000000000000000000000E8
:1058C00000000000010000001000000000000000C7
:0458D0000024F400BC
:040000050800018965
:00000001FF
